:0200000460009A
:10000000464346420004015600000000010303007D
:1000100000000000000000000000000000000000E0
:1000200000000000000000000000000000000000D0
:1000300000000000000000000000000000000000C0
:100040001000000001040700000000000000000094
:100050000000800000000000000000000000000020
:100060000000000000000000000000000000000090
:100070000000000000000000000000000000000080
:10008000EB04180A063204260000000000000000FD
:10009000050404240000000000000000000000002F
:1000A0000000000000000000000000000000000050
:1000B0000604000000000000000000000000000036
:1000C0000000000000000000000000000000000030
:1000D00020041808000000000000000000000000DC
:1000E0000000000000000000000000000000000010
:1000F0000000000000000000000000000000000000
:10010000D8041808000000000000000000000000F3
:100110000204180804200000000000000000000095
:1001200000000000000000000000000000000000CF
:10013000600400000000000000000000000000005B
:1001400000000000000000000000000000000000AF
:10015000000000000000000000000000000000009F
:10016000000000000000000000000000000000008F
:10017000000000000000000000000000000000007F
:10018000000000000000000000000000000000006F
:10019000000000000000000000000000000000005F
:1001A000000000000000000000000000000000004F
:1001B000000000000000000000000000000000003F
:1001C000000100000010000001000000000000001D
:1001D000000001000000000000000000000000001E
:1001E000000000000000000000000000000000000F
:1001F00000000000000000000000000000000000FF
:10020000FFFFFFFFFFFFFFFFFFFFFFFFFFFFFFFFFE
:10021000FFFFFFFFFFFFFFFFFFFFFFFFFFFFFFFFEE
:10100000D10020410020006000000000000000002E
:1010100020100060001000600000000000000000D0
:10102000000000600000800000000000FFFFFFFFE4
:10103000FFFFFFFFFFFFFFFFFFFFFFFFFFFFFFFFC0
:10104000FFFFFFFFFFFFFFFFFFFFFFFFFFFFFFFFB0
:10105000FFFFFFFFFFFFFFFFFFFFFFFFFFFFFFFFA0
:10106000FFFFFFFFFFFFFFFFFFFFFFFFFFFFFFFF90
:10200000000002201D230060A123006005840460FD
:10201000A5230060A7230060A92300600000000042
:10202000000000000000000000000000C12300606C
:10203000AD23006000000000F1230060D1280360A0
:10204000DF7C0460E77C0460EF7C0460F77C046064
:10205000FF7C0460077D04600F7D0460177D0460D1
:102060001F7D0460277D04602F7D0460377D046040
:102070003F7D0460477D04604F7D0460577D0460B0
:102080005F7D0460677D04606F7D0460777D046020
:102090007F7D0460877D04608F7D0460977D046090
:1020A0009F7D0460A77D0460AF7D0460B77D046000
:1020B000BF7D0460C77D0460CF7D0460D77D046070
:1020C000DF7D0460E77D0460EF7D0460F77D0460E0
:1020D000FF7D0460077E04600F7E0460177E04604D
:1020E0001F7E0460277E04602F7E0460377E0460BC
:1020F0003F7E0460477E04604F7E0460577E04602C
:102100005F7E0460677E04606F7E0460777E04609B
:102110007F7E0460877E04608F7E0460977E04600B
:102120009F7E0460A77E0460AF7E0460B77E04607B
:10213000BF7E0460C77E0460CF7E0460D77E0460EB
:10214000DF7E0460E77E0460EF7E0460F77E04605B
:10215000FF7E0460077F04600F7F0460177F0460C8
:102160001F7F0460277F04602F7F0460377F046037
:102170003F7F0460477F04604F7F0460577F0460A7
:10218000E96701605F7F0460677F0460E9D40360F2
:102190006F7F0460777F04607F7F0460877F0460C7
:1021A0008F7F0460977F04609F7F0460A77F046037
:1021B000AF7F0460B77F0460BF7F0460C77F0460A7
:1021C000CF7F0460D77F0460DF7F0460E77F046017
:1021D000EF7F0460F77F0460FF7F04600780046086
:1021E0000F800460178004601F80046027800460F3
:1021F0002F800460378004603F8004604780046063
:102200004F800460578004605F80046067800460D2
:102210006F800460778004607F8004608780046042
:102220008F800460978004609F800460A7800460B2
:10223000AF800460B7800460BF800460C780046022
:10224000CF800460D7800460DF800460E780046092
:10225000EF800460F7800460FF8004600781046001
:102260000F810460178104601F810460278104606E
:102270002F810460378104603F81046047810460DE
:102280004F810460578104605F810460678104604E
:102290006F810460778104607F81046087810460BE
:1022A0008F810460978104609F810460A78104602E
:1022B000AF810460B7810460109F0D6000000020B2
:1022C00000000000109F0D600000000000000000F2
:1022D000109F0D6000002020A8140000109F0D60CA
:1022E0000000008000000000109F0D600000E081F1
:1022F00000000000000000205C3100000000000031
:1023000000000000200E212040FE0200000000809E
:10231000000000000000E0810000000072B6104BD9
:1023200083F3088838F004FD0E4B07E003F10C043A
:102330009A685968186800F01BF823460A4A9342C5
:10234000F4D306E01C46596854F8080B00F01FF857
:102350002346064A9342F5D362B616F0B3F9FEE778
:1023600000000220B8220060F42200601C230060FC
:10237000002393420AD210B450F8044B41F8044BA6
:1023800004339342F8D35DF8044B70477047002341
:1023900003E0002240F8042B04338B42F9D370474A
:1023A000FEE7FEE7FEE7FEE7FEE7FEE7FEE7FEE705
:1023B000FEE7FEE7FFFFFFFFFFFFFFFFFFFFFFFF5F
:1023C000074B19680868B0E8F04F80F30988BFF33D
:1023D0006F8F4FF0000080F311887047AFF30080DB
:1023E0004408242000BF00BFFFFFFFFFFFFFFFFFE7
:1023F000EFF30980BFF36F8F154B1A681EF0100FB3
:1024000008BF20ED108A20E9F04F10602DE9090087
:102410004FF0200080F31188BFF34F8FBFF36F8F11
:1024200031F0A0FB4FF0000080F3118809BC19685F
:102430000868B0E8F04F1EF0100F08BFB0EC108A2B
:1024400080F30988BFF36F8F704700BFAFF3008040
:102450004408242000BF00BFFFFFFFFFFFFFFFFF76
:1024600001F0FF01102A2BDB10F0070F08D010F845
:10247000013B013A8B422DD010F0070F42B3F6D149
:10248000F0B441EA012141EA014122F007047FF062
:1024900000070023F0E80256083C85EA010586EAB9
:1024A000010685FA47F5A3FA87F586FA47F6A5FAF5
:1024B00087F68EB9EED1F0BC01F0FF0102F0070201
:1024C00032B110F8013B013A83EA010313B1F8D1AC
:1024D0000020704701387047002D06BF354603388D
:1024E000073815F0010F07D1013015F4807F02BFC6
:1024F000013015F4C03F0130F0BC0138704700BF17
:102500002DE9B04FA2B000AFC7F88400C7F8801023
:10251000D7F88430002B05D1A74BA84A9221A848B0
:1025200012F008FED7F88030002B05D1A54BA34A46
:102530009421A34812F0FEFD4FF403704CF015FAFD
:10254000D7F880300022BB67FA67D7E91E234FF027
:1025500000004FF00001990041EA9271900002469C
:102560000B46B96F5418F96F43EB01010D464FF05C
:1025700000024FF000032B0143EA14732201B2EB77
:10258000040863EB050918EB08033B6349EB0903F7
:102590007B63D7E90C8942464B468B495118396712
:1025A00043F100037B6782A3D3E90023D7E91C0131
:1025B0003BF06CF902460B4613465A1E834B1A60D9
:1025C000D7F880300022BB66FA66D7E91A45224662
:1025D0002B469118B9625B41FB62D7E90A23214679
:1025E00012EB010A294643EB010B4FF000024FF0BA
:1025F00000034FEA4B1343EADA634FEA4A121AEB3D
:10260000020139624BEB03037B62D7E90801034601
:1026100022469B183B662B460A4642EB03037B6629
:10262000694BD7E918010246D318BB650B4643F145
:102630000003FB655EA3D3E90023D7E916013BF055
:1026400025F902460B4613465A1E604B5A60D7F8CE
:10265000803000223B657A65D7E9144522462B4637
:102660004FF000004FF00001990041EA9271900094
:1026700002460B4621465118B96129464B41FB6180
:102680004FF000024FF00003D7E906894946CB001E
:10269000414643EA51734146CA0010461946034673
:1026A00022469B1A3B610B462A4663EB02037B6181
:1026B0004FF000024FF00003D7E9048949460B01AF
:1026C000414643EA117341460A0110461946034642
:1026D00022469B18BB602B460A4642EB0303FB6075
:1026E0004FF000024FF00003D7E9024529460B01E5
:1026F000214643EA117321460A0135495118B9644C
:1027000043F10003FB642AA3D3E90023D7E91201B4
:102710003BF0BCF802460B462C4B5B6801335B0078
:102720001344013B294A9360D7F8803000223B6470
:102730007A64D7E9104522462B464FF000004FF04F
:102740000001990041EA9271900002460B46214631
:1027500051183960294643EB010179604FF00002BE
:102760004FF00003D7E900452946CB00214643EA54
:1027700051732146CA0014495118B96343F100034B
:10278000FB630BA3D3E90023D7E90E013BF07EF8EE
:1027900002460B460D4B5B6801335B001344013B63
:1027A0000A4AD36000BF8837BD46BDE8B08F00BF7E
:1027B00000CA9A3B0000000084930D6010940D60E5
:1027C00094930D60A0930D6000CA9A3B1C0B2420CB
:1027D0000065CD1D80B58AB000AFF860B9607A6041
:1027E00000233B620023FB61F8684CF0D3FEB86124
:1027F00000237B624DE07B685B007A6A9A4206D1D7
:1028000029492A483BF0AAFA3B6A013347E0FB68B2
:102810005A1CFA601B78FB75FB7D0133244A134474
:102820001B7803F00303022B02D1FB7D203B00E069
:10283000FB7DBB75BB7D2F2B09D9BB7D392B06D802
:10284000FB691A01BB7D1344303BFB610EE0BB7D8D
:10285000402B09D9BB7D462B06D8FB691A01BB7DED
:102860001344373BFB6101E0002318E07B6A03F06F
:102870000103002B0AD07B6A01335B08013B3B62FA
:10288000BA683B6A1344FA69D2B21A707B6A0133A0
:102890007B627A6ABB699A42ADD33B6A01331846C0
:1028A0002837BD4680BD00BF50FC046084FC046036
:1028B000D79D0D60B0B586B004AF78607B681B789B
:1028C00018467B6801331B781C467B6802331B78F3
:1028D0001D467B6803331B781A467B6804331B78DC
:1028E00019467B6805331B780293019100922B46B1
:1028F0002246014603483BF031FA00BF0837BD4687
:10290000B0BD00BF8CFC046080B5FCB000AF07F523
:10291000F873A3F5F67318603CF08CFF0346002BA8
:1029200007D007F10C03184602F072FEC7F8EC015D
:1029300006E007F10C03184602F032FEC7F8EC017E
:10294000D7F8EC31002B0ED0104A114911483BF05A
:1029500005FA07F5F873A3F5F6731B6800221A60F1
:102960004FF0FF330DE007F5F873A3F5F273D3F8DA
:10297000C42107F5F873A3F5F6731B681A60D7F83E
:10298000EC31184607F5F877BD4680BDACFC046015
:10299000B8FC0460C0FC046080B400AF054B1B7C35
:1029A000032B0CBF01230023DBB21846BD465DF8A4
:1029B000047B7047203B222080B582B000AF0346E5
:1029C000FB71FFF7E9FF0346002B08D00A4B9B7C05
:1029D000FA799A420CBF01230023DBB207E0064BD1
:1029E0001B7CFA799A420CBF01230023DBB2184604
:1029F0000837BD4680BD00BF203B222090B587B080
:102A000000AF78600023FB75264B93F8483A002B03
:102A100018D07B68B3F1FF3F08D1224B002283F826
:102A2000482A204A7B68C2F84C3A16E01D4BD3F87E
:102A30004C4A78683CF0CAFA03469C420DD04FF0ED
:102A4000FF332BE0174B012283F8482A78683CF0CB
:102A5000BDFA0346134AC2F84C3A07F10C03184674
:102A6000FFF752FF38613B69002B07D00E4A0F4930
:102A70000F483BF073F94FF0FF330FE03CF0DAFE04
:102A80000346002B01D00123FB75F968054BD3F8F1
:102A90004C3AF87D012211F041F9034618461C37E3
:102AA000BD4690BD203B2220ACFC0460B8FC046015
:102AB000E0FC046080B582B000AF00237B6000239F
:102AC000FB7010F0B7FA0346002B03D01A4B01221B
:102AD0001A702EE0194B93F8483A002B1ED0174B72
:102AE000D3F84C3A1846FFF789FF78607B68002BD3
:102AF00010D13CF09FFE034683F00103DBB2002BB4
:102B00000CD00820FFF758FF034683F00103DBB227
:102B1000002B03D0084B01221A700AE0074B022257
:102B200083F8A629FB78184611F040FA024B0022E0
:102B30001A700837BD4680BD3C0C2420203B222063
:102B400080B582B000AF0023FB713CF073FE0346FA
:102B5000002B01D00123FB71054B022283F8A6292B
:102B6000FB79184611F022FA00BF0837BD4680BD38
:102B7000203B222080B584B000AF0346FB71674B39
:102B800093F8A739FB73654B93F8A839BB73634B74
:102B900093F8A739062B00F29B8001A252F823F08C
:102BA000BD2B0060D52B0060F52B0060192C006058
:102BB000492C0060872C0060932C0060FB79012B6E
:102BC00001D144F0B4FBFB79022B40F08380012358
:102BD000FB737FE0FB79032B01D10223FB73FB79AD
:102BE000042B01D10323FB73FB79062B74D106233D
:102BF000FB7371E0FB79002B03D1484B002283F873
:102C0000A629FB79042B01D10323FB73FB79062B47
:102C100064D10623FB7361E0FB79002B01D1FFF740
:102C200049FFFB79042B01D1FFF744FFFB79052B0A
:102C300001D10423FB73FB79062B51D1384B0022C1
:102C40001A700623FB734BE0FB79002B02D1344B47
:102C500000221A70FB79032B01D10223FB73FB794D
:102C6000042B01D10323FB73FB79062B3AD10820F7
:102C7000FFF7A2FE0346002B02D00523FB7331E0D1
:102C80000623FB732EE0FB79002B2DD10623FB736B
:102C90002AE0BB7B012B08D0BB7B022B05D0BB7B82
:102CA000042B02D0BB7B052B04D1FB79002B01D177
:102CB00044F048FBBB7B032B04D1FB79032B01D1F0
:102CC00044F040FBFB79072B10D10023FB730DE090
:102CD00000BF0CE000BF0AE000BF08E000BF06E054
:102CE00000BF04E000BF02E000BF00E000BF0B4BEC
:102CF00093F8A739FA7B9A420CD0084B93F8A7298E
:102D0000064B83F8A829054AFB7B82F8A7390023E4
:102D1000FB7134E700BF1037BD4680BD203B222049
:102D20003C0C242080B584B000AF0346FB71414BBE
:102D300093F8A939FB733F4B93F8A939062B59D85F
:102D400001A252F823F000BF652D00607B2D0060CA
:102D5000872D0060A12D0060BD2D0060D32D006087
:102D6000DF2D0060FB79012B01D144F0F6FAFB79ED
:102D7000022B41D10123FB733EE0FB79042B3DD1B3
:102D80000323FB733AE0FB79002B03D1294B00228C
:102D900083F8A629FB79042B32D10323FB732FE0A0
:102DA000FB79002B01D1FFF7CBFEFB79052B29D155
:102DB000214B00221A700423FB7323E0FB79032BC1
:102DC00001D10223FB73FB79062B1DD10523FB7375
:102DD0001AE0FB79002B19D10623FB7316E0FB796F
:102DE000002B01D144F0CBFAFB79072B10D1002343
:102DF000FB730DE000BF0CE000BF0AE000BF08E07D
:102E000000BF06E000BF04E000BF02E000BF00E03A
:102E100000BF084B93F8A939FA7B9A4206D0054ABD
:102E2000FB7B82F8A9390023FB7180E700BF1037D4
:102E3000BD4680BD203B22203C0C242080B584B0C0
:102E400000AF786039607B685033FB60FB681B78AB
:102E5000002B1BD13B6893F8323003F00203DBB246
:102E6000002B0FD13B6893F8323003F02003DBB224
:102E7000002B07D13B6893F8323003F00803DBB234
:102E8000002B01D000238CE001238AE0FB681B7833
:102E9000012B03D0FB681B78022B12D13B6893F8FF
:102EA0003B30002B06D0414A414942483AF056FF98
:102EB000002376E03B6893F83230C3F34003DBB283
:102EC0006FE0FB681B78052B0ED13B6893F832301E
:102ED000C3F3C003DAB23B6893F83230C3F3401354
:102EE000DBB21343DBB25CE0FB681B78042B06D13A
:102EF0003B6893F83230C3F34013DBB251E0FB6818
:102F00001B78032B24D13B6893F8373003F004037C
:102F1000DBB2002B15D0254A254927483AF01EFF81
:102F2000224A234925483AF019FF3B6893F8373085
:102F300003F00403DBB2002B0CBF01230023DBB240
:102F40002FE03B6893F83230C3F3C003DBB228E0D4
:102F5000FB681B78072B23D107F10A0207F10B034B
:102F6000114618463CF06EFEFB7A002B09D1BB7A65
:102F7000002B06D10D4A0E4911483AF0EFFE00230E
:102F80000FE03B6893F83230C3F3C013DAB23B680A
:102F900093F83230C3F34013DBB21343DBB200E0EB
:102FA000002318461037BD4680BD00BFACFC04604E
:102FB000B8FC0460FCFC046054FD0460B8FD0460CF
:102FC00018FE0460B0B58CB000AFF860B9607A60EC
:102FD0003B6000233B6107F1140300221A605A6032
:102FE0009A60DA601A615A619A61FB6893F8D83185
:102FF00003F00403DBB2002B08D0FB689B6CBA68BB
:1030000092F82C20934201D00023B9E0FB6893F89A
:10301000D83103F00203DBB2002B0BD0FB68413345
:10302000B968062218464CF045FA0346002B01D039
:103030000023A5E0FB6893F8D83103F00103DBB26D
:10304000002B5ED0504B93F8F63AC3F30003DBB28B
:1030500083F00103DBB2002B2DD0BB68D91DBB6808
:103060009B6A1A4607F1100318464CF023FA0346F0
:10307000002B20D17B681B789B003A681344BA6808
:1030800092F82C201A707B681B789B003A681344D6
:1030900001225A707B681B789B003A681344002217
:1030A00062F069029A700022DA707B681B78013343
:1030B000DAB27B681A70BB689B6A002B1FD0FB6872
:1030C00003F12004BB68DD1DFB68203318464CF07B
:1030D00061FA0246BB689B6A9A4206D9FB682033B4
:1030E00018464CF057FA034601E0BB689B6A1A4643
:1030F000294620464CF056FA0346002B01D0002307
:103100003EE0FB6893F8D83103F00803DBB2002BF4
:1031100008D0B968F868FFF791FE0346002B01D18B
:1031200000232DE0BB6893F8323003F00203DBB2DA
:10313000002B16D1BB6893F8323003F02003DBB2CA
:10314000002B0ED1BB6893F8323003F00803DBB2DA
:10315000002B06D1FB6893F89530002B01D000239B
:103160000EE0BB6893F82C30184604F011F80346C3
:1031700083F00103DBB2002B01D0002300E0012328
:1031800018463037BD46B0BD203B222080B400AF8A
:103190000B4B93F8A43903F00103DBB2002B05D0ED
:1031A000074B1B7C002B01D0012300E0002303F020
:1031B0000103DBB21846BD465DF8047B704700BFD3
:1031C000203B222080B483B000AF0346FB71074B45
:1031D000DB7CFA799A420CBF01230023DBB218464C
:1031E0000C37BD465DF8047B704700BF203B2220B2
:1031F00080B58EB006AF78600023BB6100237B6191
:1032000000233B617B6893F8D83103F00203DBB203
:10321000002B02D07B684133BB617B6893F8D831C7
:1032200003F00103DBB2002B02D07B6820337B610B
:103230007B6893F8D83103F00403DBB2002B02D093
:103240007B689B6C3B617B6893F84D30002B02D10F
:103250000123FB7302E00123FB7300BF344B022206
:103260001A7405F02FFF0346002B19D0304BD3F80A
:103270009439022B14D82F4B187F2E4B19682D4BE5
:103280005A6800230493002303930023029300232E
:10329000019300230093002303F056FAF8612DE018
:1032A0003B69002B19D03B69DBB23B7201237B7277
:1032B00078237B81F87B002304930023039300236E
:1032C000029307F1080301930123009300237A6915
:1032D000B96903F039FAF86110E0F87B0023049330
:1032E0000023039300230293002301930023009300
:1032F00000237A69B96903F027FAF861FB69002BAA
:103300000AD000220221062002F008FB0A4A0B49DB
:103310000B483AF023FD06E0054BD3F8943901330E
:10332000034AC2F8943900BF2037BD4680BD00BFB4
:10333000203B222000002020ACFC0460B8FC04608C
:1033400054FE046080B58EB006AFF8600B467A601C
:10335000FB720023FB610023BB61FB6893F8D8314B
:1033600003F00203DBB2002B02D0FB684133FB61A8
:10337000FB6893F8D83103F00103DBB2002B02D0D5
:10338000FB682033BB61FB6893F84D30002B02D102
:103390000123FB7502E00123FB7500BF124B0222E3
:1033A0001A74F87D012304930023039300230293EE
:1033B0007B680193FB7A00930023BA69F96903F0F3
:1033C000C3F938613B69002B09D000220221062095
:1033D00002F0A4FA054A064906483AF0BFFC00BFCD
:1033E0002037BD4680BD00BF203B2220ACFC0460DE
:1033F000B8FC046054FE046080B582B000AF786011
:1034000012497A6813461B019B1A5B010B44753302
:103410001B78002B02D06FF0160313E00B4A7B6879
:10342000C2F88839094B0022C3F894297A681346F8
:103430001B019B1A5B012833044A13441846FFF70B
:10344000D7FE002318460837BD4680BD203B22200A
:103450002DE9F043E9B030AF7860002387F8B3304E
:103460007B6893F84D30012B40F0A1807B6893F886
:10347000D83103F00403DBB2002B51D17B6800226A
:103480009A644E4B93F8A43903F00103DBB2002B8E
:1034900019D00820FFF790FA0346002B05D105202C
:1034A000FFF78AFA0346002B0DD0444BD3F8882946
:1034B000424913461B019B1A5B010B4470331A6887
:1034C0007B689A642CE03E4B1B7883F00103DBB2EF
:1034D000002B25D007F1B30207F1B40311461846BB
:1034E00003F042FF97F8B330002B19D097F8B330B0
:1034F0003B7397F8B3301A4607F1B40107F10C0398
:10350000013318464BF0E6FF684607F11C0396228C
:1035100019464BF0DFFF07F10C030FCB02F066FA00
:103520007B6893F84C607B6803F120087B6893F814
:10353000503099467B6803F154047B6803F196058B
:103540007B689B6C3B607B6893F8BD317A6892F82E
:10355000BE212E922D93194B03A803F52563A622B5
:1035600019464BF0B7FF3B680293019500944B4618
:10357000144A414630460FF05FFAC7F8DC00D7F82E
:10358000DC30002B10D0104A104911483AF0E6FB0D
:103590000A4BDB69002B04D0084BDB6900211220A9
:1035A00098474FF0FF3303E0044B0122DA74002305
:1035B0001846E437BD46BDE8F08300BF203B22201B
:1035C0003D0C2420353B2220ACFC0460B8FC046098
:1035D00070FE046080B584B000AF78600023FB60AB
:1035E0007B6893F84D30012B1DD17B6893F84C30EC
:1035F00018460FF0BFFAF860FB68002B10D00C4A99
:103600000C490D483AF0AAFB0C4BDB69002B04D0A7
:103610000A4BDB690021132098474FF0FF3303E08A
:10362000064B0022DA74002318461037BD4680BDD1
:10363000ACFC0460B8FC046094FE0460203B2220D3
:1036400080B582B000AF0346FB71194B93F8AA39DD
:1036500003F00203DBB2002B02D00620FFF78AFA48
:10366000134B93F8AA3903F00803DBB2002B06D002
:103670000F4A92F8AA396FF3C30382F8AA390C4BA8
:10368000DB69002B05D00A4BDB69FA790021104673
:103690009847074B01221A74054B1B7C032B02D160
:1036A000034B01229A7400BF0837BD4680BD00BF9E
:1036B000203B222080B582B000AF0C4B1B6A002B50
:1036C00010D03B1D184607F0E5FF0346002B01D044
:1036D00000237B60054B1B6A7A6810469847034BB2
:1036E00000221A6200BF0837BD4680BD203B222061
:1036F00080B5B0B000AF744BD3F8882913461B01D6
:103700009B1A5B012833704A1344C7F8B430002376
:1037100087F8BB30002387F8A33005F0D3FC0346BD
:10372000002B09D0684BD3F89439022B04D8D7F872
:10373000B400FFF75DFDC4E0702044F004F9C7F861
:10374000B000D7F8B030002B00F0BA805E4B0422F6
:103750001A7407F1A803184607F09CFFC7F8AC00DD
:10376000D7F8AC30002B02D00023C7F8A8300023D4
:10377000C7F8BC3045E007F1A4031946D7F8BC00F0
:103780000FF0D2FEC7F8AC00D7F8AC30002B33D125
:10379000D7F8A4103B4607F1A302D7F8B400FFF70F
:1037A00011FCC7F8AC00D7F8AC30002B24D097F848
:1037B000BB3083F00103DBB2002B0BD0D7F8A43071
:1037C00070221946D7F8B0004BF084FE012387F829
:1037D000BB3011E0D7F8B03093F82D20D7F8A430E3
:1037E00093F82D309A4207D9D7F8A43070221946A1
:1037F000D7F8B0004BF06EFED7F8BC300133C7F8F5
:10380000BC30D7F8A830D7F8BC209A42B3D397F889
:10381000BB30002B16D0D7F8B010D7F8B4003BF06F
:103820000EFDD7F8B010D7F8B4003BF059FEC7F83A
:10383000AC00D7F8AC30002B1CD1D7F8B00044F066
:10384000A4F83EE097F8A330002B13D0D7F8B000CF
:1038500044F09BF81C4A92F8F63A43F0010382F8D0
:10386000F63A97F8A3303A461946D7F8B400FFF76E
:1038700069FD26E0D7F8B00044F087F8124BD3F882
:103880009439042B0BD8104A92F8F63A6FF30003E0
:1038900082F8F63AD7F8B400FFF7AAFC11E003204B
:1038A000FFF7CEFE084B93F8403A03F00403DBB277
:1038B000002B06D0D7F8B410044801F001F800E05E
:1038C00000BFC037BD4680BD203B2220303B2220B8
:1038D00080B582B000AF78607B68012B0CD07B682C
:1038E000022B13D10C4A92F8AA3943F0040382F850
:1038F000AA3943F032FD0AE0074A92F8AA3943F0A8
:10390000020382F8AA3943F012FD00E000BF00BFB5
:103910000837BD4680BD00BF203B222080B500AFE8
:10392000054B002283F8A6290320FFF723F9032083
:10393000FFF7F8F900BF80BD203B222080B584B09E
:1039400000AF78607B685B681B68FB737B685B68B3
:10395000184644F01AF87B689B78002B09D1FB7B52
:10396000FE2B06D1054A92F8AA396FF3410382F87B
:10397000AA3900BF1037BD4680BD00BF203B2220C2
:1039800080B584B000AF786039607B685B681B6885
:10399000FB737B685B68184643F0F7FF7B689B7896
:1039A000002B09D1FB7BFE2B06D1054A92F8AA39E0
:1039B0006FF3820382F8AA3900BF1037BD4680BD7D
:1039C000203B222080B582B000AF786039607B68F0
:1039D0009B78002B01D107F077FE0F4B1B7C022B4D
:1039E00006D1FFF785FE0C4B1A7C3B681A7009E084
:1039F000094B1B7C032B05D1FFF75CFE064B9A7C21
:103A00003B681A70044810F0E7FD034B00221A715E
:103A100000BF0837BD4680BD203B222080B586B060
:103A200000AFF860B9607A600620FEF7C5FF034674
:103A300083F00103DBB2002B6DD1FB689B78002B78
:103A400007D00620FFF7FCFD374B1A7CBB681A70C5
:103A500066E000237B617B6893F8C031002B05D0C2
:103A6000002B5ADB013B012B57D84DE07B6803F557
:103A7000E0727B6893F84D301946104644F01BF80D
:103A80007B6893F84C30002B02D110F0F5FE786182
:103A90007B6803F5E0737969184643F0E4FF224B35
:103AA00008221A74204A92F8AA396FF3C30382F8E5
:103AB000AA39BB6808221A701B4B08225A741A4B89
:103AC00093F8403A03F00403DBB2002B12D0164BFC
:103AD00093F8403A03F00803DBB2002B0AD0124BF4
:103AE0000022C3F8442A104A92F8403A6FF3C30305
:103AF00082F8403A0C4BDB69002B10D00A4BDB6993
:103B00000021002098470AE0BB6807221A70064B84
:103B100007225A7404E000BF02E000BF00E000BFCB
:103B20001837BD4680BD00BF203B222080B582B043
:103B300000AF7860396003F0ABFB034683F001030C
:103B4000DBB2002B21D00820FEF736FF0346002B06
:103B50001BD005F02DF93B684133184602F094FD67
:103B600005F042F905F050F905F030F9094B012252
:103B70001A747B6801221A70064BDB69002B04D093
:103B8000044BDB6900210820984700BF0837BD4679
:103B900080BD00BF203B222080B582B000AF78609E
:103BA00003F076FB0346002B2DD07B685B68002B6F
:103BB00029D07B685B681B78194615483AF0CEF827
:103BC0007B685B681978134BD3F88829084611493C
:103BD00013461B019B1A5B010B44703318600D4B9D
:103BE000D3F888290B4913461B019B1A5B010B4430
:103BF00070331B68DBB2184603F0D0FB7B685B6850
:103C0000184643F0C2FE00BF0837BD4680BD00BF66
:103C1000B8FE0460203B222080B584B000AF0023B2
:103C2000BB600023FB733B1D1846FEF76DFEB860BA
:103C3000BB68002B05D00B4A0B490C483AF08EF8B4
:103C40000CE03BF0F7FD0346002B01D00123FB7392
:103C50007968F87B0023022210F060F81037BD4627
:103C600080BD00BFACFC0460B8FC0460D8FE0460FA
:103C700080B582B000AF786039600420FEF79CFE0A
:103C8000034683F00103DBB2002B42D17B689B78B3
:103C9000002B0AD1214B05221A743B6805221A70A9
:103CA0001E4B0022C3F8942934E01C4BD3F89439FE
:103CB000042B10D8194BD3F8882913461B019B1AE3
:103CC0005B012833154A13441846FFF791FA3B6805
:103CD00002221A701EE00320FFF7B2FC0F4B93F88C
:103CE000403A03F00403DBB2002B0DD00B4BD3F8AA
:103CF000882913461B019B1A5B012833074A13448A
:103D00001946386800F0DCFD044B1A7C3B681A70D9
:103D100000E000BF0837BD4680BD00BF203B222029
:103D200080B588B000AFF860B9607A6000237B612D
:103D30000023FB610420FEF73FFE034683F00103EE
:103D4000DBB2002B24D00520FEF736FE034683F0BD
:103D50000103DBB2002B1BD00620FEF72DFE03462D
:103D600083F00103DBB2002B12D00720FEF724FE04
:103D7000034683F00103DBB2002B09D00820FEF7D5
:103D80001BFE034683F00103DBB2002B40F0898069
:103D9000FB689B78002B2FD17B6893F84C30002B6D
:103DA00002D110F069FDF861404BDB69002B04D0B3
:103DB0003E4BDB690021012098477B6803F5E073E7
:103DC000F969184610F096FD78617B69002B0CD0DC
:103DD000374A3849384839F0C1FF0620FFF730FC30
:103DE000324B1A7CBB681A705CE0BB6806221A7002
:103DF0002E4B06225A7455E0FB685B681B880E2B1D
:103E000009D12A4A92F8403A43F0010382F8403A35
:103E10002A4810F03BFA0620FEF7CEFD0346002BA1
:103E200005D10720FEF7C8FD0346002B12D0002362
:103E3000BB617B6893F84C30002B02D110F01CFD65
:103E4000B861BB69002B05D0B86910F03BFDB869BB
:103E500010F026FD0520FEF7AFFD0346002B04D031
:103E60007B684133184602F00FFC104B01221A7494
:103E70000E4B01221A74BB6801221A700B4B0122EF
:103E80005A740420FFF7DCFB084B93F8403A03F028
:103E90000403DBB2002B05D07968B86800F010FD90
:103EA00000E000BF2037BD4680BD00BF203B222080
:103EB000ACFC0460B8FC0460F4FE04605C452220A5
:103EC00080B586B000AFF860B9607A600120FEF777
:103ED00073FD0346002B65D100237B617B6893F85B
:103EE0004C30002B02D110F0C7FC78617B69002BAD
:103EF00005D0786910F0E6FC786910F0D1FC082054
:103F0000FEF75AFD0346002B2FD0284B01221A74CE
:103F1000264B01225A74254B93F8AA3903F0020369
:103F2000DBB2002B02D00620FEF724FEFB685B68A4
:103F30000E2B04D101F0D8FBBB6801221A701B4B79
:103F4000DB69002B04D0194BDB690021072098475F
:103F5000FEF722FD0346002B03D0144B01229A7476
:103F600013E0BB6801221A700FE0FB685B680F2B3F
:103F700003D10420FFF764FB03E00320FFF760FB9D
:103F800000BF0A4B1A7CBB681A70084B93F8403A82
:103F900003F00403DBB2002B05D07968B86800F0A9
:103FA0008FFC00E000BF1837BD4680BD203B2220BB
:103FB00080B584B000AFF860B9607A60BB68012258
:103FC0001A700F4B01221A74FEF7E6FC0346002B11
:103FD00002D00B4B01229A740420FFF731FB084BEF
:103FE00093F8403A03F00403DBB2002B03D0796866
:103FF000B86800F065FC00BF1037BD4680BD00BF4B
:10400000203B222080B58AB000AFF860B9607A60AA
:1040100000237B62554A92F8AA396FF3C30382F8F2
:10402000AA39524B5B7C072B62D1FB689B78002B33
:1040300013D00620FFF704FB4C4B93F8403A03F0F3
:104040000403DBB2002B03D07968B86800F038FCB9
:10405000464B1A7CBB681A7085E010F0D7FB7B6872
:1040600003F5E0727B6893F84D301946104643F033
:1040700022FD7B6893F84C30002B02D110F0FCFB42
:1040800078627B6803F5E073796A184643F0EBFCCD
:10409000364B08221A74BB6808221A70334B082268
:1040A0005A74324B93F8403A03F00403DBB2002B0E
:1040B00012D02E4B93F8403A03F00803DBB2002BEA
:1040C0000AD02A4B0022C3F8442A284A92F8403AE0
:1040D0006FF3C30382F8403A244BDB69002B42D0D4
:1040E000224BDB6907F114021146002098473AE0A1
:1040F000FB689B78002B1ED01C4B93F8AA3903F069
:104100000203DBB2002B02D00620FEF733FD0620AF
:10411000FFF796FA154B93F8403A03F00403DBB22D
:10412000002B03D07968B86800F0CAFB0F4B1A7CEB
:10413000BB681A7017E07B6893F84C30002B02D1F3
:1041400010F09AFB78627B6803F5E073796A184691
:1041500043F089FC054BDB69002B04D0034BDB6982
:104160000021052098472837BD4680BD203B2220EE
:1041700080B586B000AF7860396000237B61304B3A
:104180001B7C002B57D17B689B78002B11D02D4ACC
:104190002D492E4839F0E2FD294BDB69002B04D074
:1041A000274BDB6900210C2098473B6800221A70DE
:1041B00042E0234B01221A743B6801221A703B68CB
:1041C00001221A70224842F0F4FF04F0D7FC214A81
:1041D00007F1080392E8030083E8030007F10803EE
:1041E00093E803003BF003FD3EF084F832200FF02B
:1041F00069FC6E237B827B8A18463BF0C6FC7861A3
:104200007B69002B05D00F4A0F49134839F0A6FDF2
:1042100012E07B8A18463BF023FD4FF0C1703BF063
:10422000A8FC78617B69002B06D0064A06490B483A
:1042300039F094FD00E000BF1837BD4680BD00BFD7
:10424000203B2220ACFC0460B8FC046018FF046032
:10425000B844222090FF046038FF046064FF0460CB
:1042600080B586B000AF78600023FB60B24BDB7C8A
:10427000FB750023BB6000233B61AF4BD3F88C2957
:1042800013461B019B1A5B012833AB4A1344FB60A6
:104290007B681B882B2B00F2428101A252F823F08D
:1042A000B343006047440060694400609F4400607D
:1042B0008B4400601F4500601F4500601F45006083
:1042C0001F4500601F4500601F4500601F450060DE
:1042D0001F4500601F4500601F4500601F450060CE
:1042E0001F4500601F4500601F4500601F450060BE
:1042F0001F4500601F4500601F4500601F450060AE
:104300001F4500601F4500601F4500601F4500609D
:104310001F4500601F4500601F4500601F4500608D
:104320001F4500601F4500601F4500601F4500607D
:104330001F4500601F4500601F4500601F4500606D
:104340001F4500601F4500605143006087430060C7
:104350007B685B681A46784BC3F88C29764B002241
:10436000C3F89429744BD3F88C2913461B019B1A6C
:104370005B012833704A13441846FFF769F86E4B07
:10438000DB7CFB75EBE06C4BDB7C002B00F0CF8023
:10439000694BD3F88C2913461B019B1A5B01283308
:1043A000654A13441846FFF715F9634BDB7CFB7530
:1043B000D5E00120FEF706FF034683F00103DBB2E0
:1043C000002B05D05D4A5E495E4839F0C7FCC6E067
:1043D0007B689B78002B2CD1FB6893F84C30012B29
:1043E00009D1FB6841330622574918464BF072F851
:1043F00010F04CFA3861FB6803F5E0733969184630
:1044000010F078FAB860BB68002B0FD04F4A4C49C7
:104410004F4839F0A3FC484BDB69002B00F0898042
:10442000454BDB6900210620984782E00223FB759B
:104430007FE0414BDB69002B7BD03F4BDB690021E8
:104440001220984775E03C4BDB69002B06D03A4BB5
:10445000DB697A6852681146102098477B685B6870
:10446000184643F092FA7AE0334BDB69002B06D012
:10447000314BDB697A6852681146112098477B6896
:104480005B68184643F081FA69E02B4BDB69002B2F
:1044900064D0294BDB690021142098475EE002209C
:1044A000FEF790FE034683F00103DBB2002B05D03C
:1044B000224A2349274839F051FC50E07B689B7819
:1044C000002B1FD1FB6893F8C031002B1AD1FB6879
:1044D00093F84C30012B02D110F0D8F93861FB6809
:1044E00003F5E0733969184643F0BDFA0323FB7501
:1044F000114BDB69002B11D00F4BDB6900210F2022
:1045000098470BE00C4BDB69002B04D00A4BDB69AE
:104510000021062098470023FB7520E01FE07B6800
:104520001B88064A06490C4839F018FC17E000BF02
:1045300015E000BF13E000BF203B222098FF04607D
:10454000B8FC0460A0FF0460353B2220ACFC046092
:10455000E8FF04600C0005605000056000BFFB7DB3
:1045600018461837BD4680BDF0B58BB006AF7860F1
:1045700039607B685B68002B0BD1324A3249334883
:1045800039F0ECFB324810F027F8314B00221A7159
:1045900055E07B685B68FB603AF03BFE034683F0C6
:1045A0000103DBB2002B0ED0264A2749294839F0F7
:1045B000D5FBF86843F0E9F9254810F00DF8244BD5
:1045C00000221A713BE0244B187FFC68FB689D1D9C
:1045D000FB6893F82730FA682832F96891F83C10A4
:1045E0000026049600260396029101920093002370
:1045F0002A46214602F0A8F8B860BB68002B0FD00D
:10460000164A1149164839F0A9FB114B1A7C3B6830
:104610001A700F480FF0E0FF0D4B00221A710BE0EB
:10462000FB68D3F83D300A4A1362094B1A7C084BE9
:104630009A743B6803221A70F86843F0A6F914379D
:10464000BD46F0BD98FF0460B8FC046078000560CA
:10465000203B2220AC00056000002020ACFC046060
:10466000DC00056080B582B000AF78600D4B93F838
:10467000A539022B0DD00B4B93F8A539012B08D08F
:10468000084B93F8A539084A0849094839F066FBF0
:1046900005E00FF009FA034B002283F8A52908373B
:1046A000BD4680BD203B2220ACFC0460B8FC046009
:1046B0000001056080B584B000AF786039600023E8
:1046C000FB603B6893F84C30002B02D110F0D4F81B
:1046D000F860FB68002B05D1494A4A494A4839F03D
:1046E0003DFB89E0F86810F0EDF8F86810F0D8F8B4
:1046F000464B1B7C002B05D00120FEF75DF90346DD
:10470000002B03D000200EF0A1FC75E0FEF744F969
:104710000346002B16D03D4B9B7C012B12D03B4B0C
:104720009B7C032B2ED93B684133184601F0ACFF2C
:10473000364B01229A747B6801221A70334B012296
:104740005A741FE0314B1B7C032B0ED93B6841335D
:10475000184601F099FF2D4B01221A747B68012243
:104760001A702A4B01225A740CE0284B1B7C022B36
:1047700008D1264B01221A747B6801221A70234B40
:1047800001225A74214BDB69002B04D01F4BDB69DB
:1047900000210A2098471D4B93F8403A03F0040388
:1047A000DBB2002B16D0194B93F8403A03F0080304
:1047B000DBB2002B0ED0154B0522C3F89429134B06
:1047C0000522C3F8442A114A92F8403A6FF3C30312
:1047D00082F8403A0D4B93F8AA3903F00803DBB294
:1047E000002B06D0094A92F8AA396FF3C30382F866
:1047F000AA3900200EF02AFC1037BD4680BD00BF4C
:1048000098FF0460B8FC046038010560203B22205A
:1048100080B586B000AFF860B9607A60FB685B680D
:104820001A4613461B019B1A5B012833234A134483
:104830007B61224A92F8AA3943F0080382F8AA3928
:104840007B6993F8BD311A467B6993F8BE311946EE
:1048500010463BF0DBF9194B1B7C032B09D97B6914
:1048600093F84D30002B04D17B684133184601F09A
:104870000BFFFB685B681846FEF7BEFD38613B69BD
:10488000002B12D00D4B1B79002B05D00B480FF0DD
:10489000A3FE0A4B00221A71084BDB69002B04D0DF
:1048A000064BDB69002102209847044B1A7CBB6849
:1048B0001A7000BF1837BD4680BD00BF203B2220C4
:1048C00080B584B000AF7860396000233B8100235D
:1048D000BB72184BD3F88839FB60164A92F8403AFD
:1048E00043F0080382F8403A124BD3F8443A042BC1
:1048F0000ED8104BD3F8443A01330E4AC2F8443A6A
:1049000007F108033A6879681846FFF781FF0CE061
:10491000084A92F8403A6FF3C30382F8403A054BD5
:104920000022C3F8442A00F0DFFE00BF1037BD4666
:1049300080BD00BF203B222080B500AF01F088F889
:10494000054BDB69002B04D0034BDB6900210B20F6
:10495000984700BF80BD00BF203B222080B584B0B7
:1049600000AF7860B94B1B7CFB720023FB60B74B38
:10497000D3F8882913461B019B1A5B012833B34ADD
:104980001344FB607B681B88063B222B00F24C81A2
:1049900001A252F823F000BFF54A0060814B00608D
:1049A000034B0060114B0060214B0060514B0060D5
:1049B000614B0060314B0060414B0060714B006007
:1049C000874B0060294C0060074C0060954B0060ED
:1049D000294C0060BB4B0060C34B0060C94B0060BA
:1049E000D14B0060294C0060DF4B0060294C006017
:1049F000294C0060EF4B0060FF4B0060F74B0060FC
:104A0000394C0060A54B0060B34B0060294C00603E
:104A1000254A0060694A0060774A0060854A006064
:104A2000D54A0060894A92F8403A6FF3410382F810
:104A3000403A864B93F8403AC3F30003DBB283F06D
:104A40000103DBB2002B07D007F10B03FA6819460C
:104A50007868FFF7DDFEF4E07C4A92F8403A43F0D4
:104A6000020382F8403AECE007F10B03F9681846BC
:104A7000FFF720FEE5E007F10B0319467868FFF722
:104A800073FDDEE0714B1B7C012B0ED96F4B1B7C41
:104A9000072B0AD86E4A6F496F4839F05FF96F4AA1
:104AA0006C496F4839F05AF9CBE07B685B68002BA2
:104AB0000AD1674A67496B4839F050F9674A654936
:104AC000694839F04BF9BCE07B685B681846FEF733
:104AD000FFFEB6E07B685B68002B05D15C4A5D4950
:104AE000624839F03BF9ACE07B685B6818463AF005
:104AF00030FDA6E007F10B0319467868FEF762FF68
:104B00009FE007F10B0319467868FFF7B1F898E0CA
:104B100007F10B03FA68194678683AF0C2FD90E095
:104B200007F10B03FA6819467868FFF7F9F888E08F
:104B300007F10B03FA6819467868FFF7C1F980E0BE
:104B400007F10B03FA68194678683AF0DCFD78E063
:104B500007F10B03FA6819467868FFF729FA70E045
:104B600007F10B03FA68194678683AF0DDFD68E052
:104B700007F10B03FA6819467868FEF74FFF60E00B
:104B8000FFF7DAFE5DE007F10B0319467868FFF7DF
:104B9000EFFA56E007F10B03FA6819467868FFF759
:104BA00031FA4EE007F10B03F9681846FEF7BEFF35
:104BB00047E07868FEF7F0FF43E000200FF0F6F9D9
:104BC0003FE0FEF7ABFE3CE07868FEF7B7FE38E06A
:104BD00007F10B0319467868FEF7D2FE31E01B4B54
:104BE00093F8483A002B29D0FFF716F826E07868AA
:104BF0003AF0C4FC25E078683AF0F1FC21E07868EE
:104C00003AF01EFD1DE07B685B68002B18D07B68C6
:104C10005B680622194616484AF05CFC7B685B68B4
:104C2000184642F0B2FE0BE07B681B88084A09492F
:104C3000104839F093F804E000BF02E000BF00E044
:104C400000BFFB7A18461037BD4680BD203B2220AE
:104C500098FF0460B8FC046058010560ACFC046077
:104C600084010560AC010560E00105600402056097
:104C7000353B22203802056080B586B000AF7860F1
:104C800007F108030822002118464AF04BFC07E010
:104C90004FF4FA7042F094FB0346184642F0DEFBF4
:104CA0003A4B93F8A43903F00103DBB2002BEFD0A9
:104CB0000FF008FD364B1B78002B01D00A2301E0D2
:104CC0004FF0FF33184642F07BFB024607F1080322
:104CD0001946304842F079FC78612C4B93F8A4399E
:104CE00003F00203DBB2002B06D0284B032283F82B
:104CF000A529002042F0BDFB7B69002B2FD107F1D5
:104D0000080318463AF01CFD0346002B0FD007F1AC
:104D100008031846FFF7A4FA0346BB741B4BDB7C61
:104D2000BA7C9A422CD0194ABB7CD374C2E73B8927
:104D30002F2B04D1FB681846FFF794FCBAE707F164
:104D400008031846FFF70AFE0346FB740F4B1B7C53
:104D5000FA7C9A4216D00D4AFB7C1374AAE708200D
:104D6000FDF72AFE034683F00103DBB2002B0BD1D3
:104D7000074B1B78002B9DD00420FDF7FBFE99E725
:104D800000BF97E700BF95E700BF93E7203B2220D5
:104D90003C0C2420283B222080B584B000AF034681
:104DA0003960FB71FB799BB23B810023BB723B688E
:104DB000FB6007F108030022194607480FF046FB85
:104DC0000346002B01D1002301E04FF0FF331846CA
:104DD0001037BD4680BD00BF283B222080B586B07D
:104DE00000AF786039602F4B93F8A539002B01D0C4
:104DF000002353E02C4B2D4A2D492E4842F0D8FC7D
:104E000078617B69002B06D02B4A2C492C4838F05E
:104E1000A5FF7B6942E0396878680EF0E1FD7861B2
:104E20007B69002B07D07B69234A2649264838F046
:104E300095FF7B6932E01B4B012283F8A52907F11E
:104E40000C0318460CF00CF878617B69002B06D037
:104E5000194A1C491D4838F081FF7B691EE007F1A3
:104E60000C03062219461A484AF034FB194838F058
:104E700075FF1748FDF71EFD174838F06FFF1748FC
:104E80000CF000F878617B69002B06D00A4A0D49C6
:104E9000134838F063FF7B6900E07B6918461837D8
:104EA000BD4680BD203B222079F703605802056093
:104EB00068020560103B2220ACFC046074020560AF
:104EC0007C020560B8FC0460A4020560D0020560A5
:104ED000353B2220F402056004280560D0442220DE
:104EE0000403056080B582B000AF78600B4A92F889
:104EF000403A6FF3000382F8403A084B93F8403A87
:104F000003F00203DBB2002B03D000212420FFF7C3
:104F100043FF00BF0837BD4680BD00BF203B2220B5
:104F200080B588B004AF78607E4B93F8A539012B2B
:104F30000ED07C4B93F8A539002B09D0794B93F810
:104F4000A539794A79497A4838F008FF0323E4E023
:104F50007B68002B02D16FF01603DEE0714B93F8F3
:104F6000A43903F00103DBB2002B01D00323D4E00A
:104F70006C4B00221A746B4B01229A74694B00220D
:104F8000DA74684B00221A75664A92F8403A43F088
:104F9000040382F8403A634A92F8F63A6FF300034A
:104FA00082F8F63A5F4B002283F8A6295D4A92F810
:104FB000AA396FF3410382F8AA395A4A92F8AA39FA
:104FC0006FF3820382F8AA39564B1E22C3F8AC292C
:104FD000544B4FF0FF32C3F88829524B4FF0FF3249
:104FE000C3F88C294F4B0022C3F890294FF4166266
:104FF000002150484AF096FAA62200214E484AF075
:1050000091FA484B0022C3F89429464A7B68D36141
:10501000444B00221A62434A484B1B68D360484BFA
:1050200008224849484842F0AFFAF860FB68002B74
:1050300008D0FB683C4A3D49444838F08FFE4FF0A9
:10504000FF336AE040480EF001FBF860FB68002B7C
:105050000AD0354A35493E4838F080FE3A4842F099
:10506000D7FA4FF0FF3358E02E4A3A4B1B68C2F88C
:10507000A0390E230193384B00930023374A384957
:10508000384842F0B3F9F860FB68002B0BD0254B91
:105090000022DA612C480EF0F7FA2B4842F0B8FAF9
:1050A0004FF0FF3339E030491E4842F04CFB0346D5
:1050B000002B0BD024480EF0E7FA234842F0A8FA60
:1050C000284842F0B3F94FF0FF3326E0154A92F832
:1050D000A43943F0010382F8A439124B022283F869
:1050E000A5294EF6602042F06BF902460123029397
:1050F00000230193002300931C4B1D491D4842F0DF
:10510000D1F9F860FB68002B06D0074A07491A4816
:1051100038F024FEFB6800E0002318461037BD4637
:1051200080BD00BF203B2220ACFC0460B8FC0460C2
:1051300024030560483B22207045222028002020BF
:105140002C3B222058030560283B22206403056085
:10515000900305602C002020C0442220794C006080
:10516000B8030560BC442220C0030560E54E006022
:10517000CC0305605C452220D803056080B584B06F
:1051800000AF78607B6893F85030BB730123FB73EA
:10519000BB7B082B5ED801A252F823F04952006075
:1051A0004F5200604F520060C1510060C151006019
:1051B000C1510060495200602152006049520060B4
:1051C0007B6893F89530072B04D97B6893F895306A
:1051D000402B09D97B6893F89530284A28492948FB
:1051E00038F0BCFD002344E07B6893F89530402BF9
:1051F00033D17B6803F154027B6893F895301946EC
:1052000010463AF0DAFA034683F00103DBB2002BD2
:1052100023D01A4A1A491C4838F0A0FD002328E080
:105220007B68D3F89831072B04D97B68D3F8983181
:10523000FF2B14D97B68D3F89831104A10491348D2
:1052400038F08CFD002314E00123FB7308E00023F9
:10525000FB7305E00023FB7302E000BF00E000BF2A
:10526000FB7B83F00103DBB2002B01D0002300E0C5
:10527000012318461037BD4680BD00BFACFC04605A
:10528000B8FC0460080405605004056098040560DB
:1052900080B586B000AF78604FF0FF337B617B68EC
:1052A000002B02D16FF0160373E17B6893F84D3049
:1052B000002B21D1FDF76AFF0346002B1CD00120F3
:1052C000FDF77AFB034683F00103DBB2002B13D01A
:1052D0000520FDF771FB034683F00103DBB2002BD1
:1052E0000AD00820FDF768FB034683F00103DBB218
:1052F000002B01D003234CE17B6818464AF04AF9A1
:10530000F860FB68002B02D0FB681F2B02D96FF0FE
:1053100016033EE17B6893F82030002B0AD17B68AE
:105320004133184639F095FE0346002B02D06FF04A
:1053300016032EE17B6893F84D30002B0FD17B686C
:1053400093F85030072B0AD17B6893F8BD3183F076
:105350000103DBB2002B02D06FF0160319E17B686A
:1053600093F84D30012B14D17B6893F85030072B04
:1053700004D07B6893F85030082B0AD17B6893F8EF
:10538000BD3183F00103DBB2002B02D06FF01603B6
:10539000FFE07B6893F84D30002B07D17B6893F8D2
:1053A0005030082B02D16FF01603F2E07868FFF757
:1053B000E5FE034683F00103DBB2002B02D06FF061
:1053C0001603E6E07B6893F84C30002B04D07B6832
:1053D00093F84C30FF2B12D17B6893F84D30012BA2
:1053E00004D17B68012283F84C2008E07B6893F8A5
:1053F0004D30002B03D17B68002283F84C20002322
:105400003B6135E065493A6913461B019B1A5B0114
:105410000B4428331B78002B21D03A6913461B011B
:105420009B1A5B0128335D4A134418464AF0B2F8D0
:105430000246FB68934218D13A6913461B019B1A36
:105440005B012833554A13447968FA6818464AF0D4
:10545000A9F80346002B08D16FF0160399E07B6989
:10546000B3F1FF3F01D13B697B613B6901333B6194
:105470003B69042BC6D97B69002B02DA6FF00C0361
:1054800087E07A6913461B019B1A5B012833434A64
:1054900013444FF4F072796818464AF01BF87B68A1
:1054A00093F82030002B14BF01230023D9B23B48CE
:1054B0007A6913461B019B1A5B01034403F50072D2
:1054C000137861F3000313707B684133184639F099
:1054D000C0FD0346002B0CBF01230023D9B22F4887
:1054E0007A6913461B019B1A5B01034403F50072A2
:1054F000137861F3410313707B689B6C002B14BF1E
:1055000001230023D9B225487A6913461B019B1A4F
:105510005B01034403F50072137861F38203137097
:105520007B6893F85030062B0CD01C497A691346DF
:105530001B019B1A5B010B4403F50072137843F0C7
:10554000080313707B6893F84D30002B19D17B68EA
:1055500093F85030002B14D07B6893F85030012B17
:105560000FD07B6893F84D301A467B68203319467C
:10557000104601F007FCB860BB68002B01D0042383
:1055800007E0064BD3F890390133044AC2F890394A
:10559000002318461837BD4680BD00BF203B22209F
:1055A00080B582B000AF78607B68002B02D16FF0CD
:1055B000160326E0154B93F8A43903F00103DBB280
:1055C000002B1DD00820FDF7F7F90346002B05D16D
:1055D0000520FDF7F1F90346002B11D00B4BD3F852
:1055E000882913461B019B1A5B012833074A134481
:1055F0004FF4F0721946786849F06CFF002300E020
:10560000032318460837BD4680BD00BF203B22203B
:1056100080B582B000AF78607B68002B02D16FF05C
:10562000160326E0154B93F8A43903F00103DBB20F
:10563000002B1DD00320FDF7C5FD0346002B05D12F
:105640000220FDF7BFFD0346002B11D00B4BD3F812
:105650008C2913461B019B1A5B012833074A13440C
:105660004FF4F0721946786849F034FF002300E0E7
:10567000032318460837BD4680BD00BF203B2220CB
:1056800080B400AF054B1B7C082B0CBF012300230B
:10569000DBB21846BD465DF8047B7047203B2220F4
:1056A00080B483B000AF78600C4B1B88DAB20C4B2F
:1056B0001B88DBB2D31ADAB20A4B1A70094B1B787B
:1056C0009BB2A3F580739BB21AB27B681A80002349
:1056D00018460C37BD465DF8047B70472A0C242021
:1056E000280C2420420C242080B500AF084B93F8EE
:1056F000A43903F00103DBB2002B01D1032304E042
:1057000000212520FFF748FB0023184680BD00BF7D
:10571000203B222080B586B000AF78607B68002BEC
:1057200004D0786849F036FF034600E000233B616F
:1057300000237B61334B93F8A43903F00103DBB200
:10574000002B01D1032359E02E4BD3F89039002BC5
:1057500002D03B69002B02D16FF016034EE000230C
:105760007B6146E027497A6913461B019B1A5B015E
:105770000B4428331B78002B38D07A6913461B0161
:105780009B1A5B0128331F4A1344184649F002FF55
:1057900002463B69934229D17A6913461B019B1A41
:1057A0005B012833174A13443A697968184649F06F
:1057B000F9FE0346002B19D14FF0FF3111480EF0CE
:1057C000C9FEF860FB68002B07D0FB680E4A0F4942
:1057D0000F4838F0C3FA042310E00A4B01221A7173
:1057E00079692420FFF7D8FA034607E07B69013383
:1057F0007B617B69042BB5D96FF016031846183707
:10580000BD4680BD203B2220ACFC0460B8FC046097
:10581000D004056084B080B582B000AF07F1100CF1
:105820008CE80F0000237B60D7F84D30002B02D1AD
:105830006FF0160346E0FDF7A9FC034683F0010371
:10584000DBB2002B07D139F0E4FC034683F00103FF
:10585000DBB2002B01D0032334E0412042F080F87A
:1058600078607B68002B02D16FF00C032AE04122A4
:1058700007F11001786849F02DFE4FF0FF3115480F
:105880000EF068FE38603B68002B0BD03B68124A74
:105890001249134838F062FA786842F076F84FF00F
:1058A000FF330FE00B4B01221A717B68194626204B
:1058B000FFF772FA38603B68002B02D0786842F03C
:1058C00064F83B6818460837BD46BDE8804004B020
:1058D000704700BF203B2220ACFC0460B8FC046091
:1058E000D004056080B582B000AF78607B68002B83
:1058F00002D16FF016030AE006220021786849F011
:1059000011FE06220449786849F0E4FD0023184698
:105910000837BD4680BD00BF353B222080B584B02E
:1059200000AF03463A60FB710B46BB71FB799BB23B
:105930003B81BB79BB723B68FB6007F10803002227
:10594000194607480EF082FD0346002B01D10023C3
:1059500001E04FF0FF3318461037BD4680BD00BF51
:10596000283B222080B400AF034B5B6A1846BD463B
:105970005DF8047B704700BF0000202080B400AFBA
:10598000024B1846BD465DF8047B7047D144222087
:1059900080B584B000AF786039600023FB60786820
:1059A0003AF001F9F860FB68002B06D00B4A0C496D
:1059B0000C4838F0D3F9FB680CE038683AF005F988
:1059C000F860FB68002B04D0044A0549064838F00B
:1059D000C5F9FB6818461037BD4680BDACFC0460B5
:1059E000B8FC0460F80405601805056084B080B553
:1059F00000AF07F1080C8CE80F00074B01221A706A
:105A0000A62207F10801054849F064FD00BFBD4624
:105A1000BDE8804004B070473D0C24207045222032
:105A200080B582B000AFFFF7A9FF7860054906484E
:105A300038F094F97968054838F090F900BF0837D4
:105A4000BD4680BD34050560400505606005056004
:105A500080B582B000AF00237B600D490D48FFF791
:105A600097FF78607B68002B02D00B4838F076F9FE
:105A70000A490B48FFF78CFF78607B68002B02D047
:105A8000084838F06BF97B6818460837BD4680BD7A
:105A9000E80120203000202080050560D40520206A
:105AA0000C012020B005056080B58EB002AFF86013
:105AB000B9607A600023FB610023FB620023BB61B5
:105AC00000237B8500237B6200233B624FF400624E
:105AD00000213C4849F026FD07F1100318460BF061
:105AE00049F87A6ABB689A4265D200233B6216E0A5
:105AF000092041F008F90346002B07D041F09AF93C
:105B000003467B857B8D002B06D00BE02E4A2F4968
:105B10002F4838F023F905E03B6A01333B623B6ACA
:105B2000632BE5D97B8D002B0AD16C230093294B85
:105B3000254A2649284838F011F94FF0FF333CE058
:105B40007A8D3B699A4207D91F4A2049234838F089
:105B500005F94FF0FF3330E07B8DFB62BA687B6A5A
:105B6000D31AFA6A9A4203D9BA687B6AD31AFB62DB
:105B700007F1180207F11C031946F86A41F0F3F81F
:105B8000FA687B6A1344FA6A19460E4849F0A2FC87
:105B9000FA69B96907F1140301930A4B00930B46A4
:105BA0000121786807F08CFE7A6AFB6A13447B62F5
:105BB00000237B8595E700BF002318463037BD469C
:105BC00080BD00BF200E2120ACFC0460E005056014
:105BD000E8050560800605600C060560280605607E
:105BE00080B584B000AF786039603AF098F8F8601A
:105BF000FB68002B01D0FB6825E0154A7B68136029
:105C00003B68BB60124B1B68124A1268B9681846A1
:105C1000FFF74AFFF860FB68002B01D0FB6812E039
:105C20004FF47A703AF051F8034683F00103DBB287
:105C3000002B07D0084A0949094838F08FF84FF07F
:105C4000FF3300E0002318461037BD4680BD00BF7B
:105C500018462220B04C2220ACFC0460E005056010
:105C600054060560B0B4B9B000AF78600B46FB7065
:105C700013463B807B681B68C7F8CC300023A7F82D
:105C8000DA300023C7F8D430914B07F19C041D464D
:105C90000FCD0FC40FCD0FC495E80F0084E80F009F
:105CA0008C4B07F16C041D460FCD0FC40FCD0FC4F4
:105CB00095E80F0084E80F00874B07F13C041D4670
:105CC0000FCD0FC40FCD0FC495E80F0084E80F006F
:105CD000824B07F10C041D460FCD0FC40FCD0FC42E
:105CE00095E80F0084E80F00FB7803F04003002BD9
:105CF0000CD0D7F8CC30D3F82C33C7F8D430D7F841
:105D0000CC30D3F81433C7F8D0300BE0D7F8CC3010
:105D1000D3F82833C7F8D430D7F8CC30D3F81033C1
:105D2000C7F8D030002387F8DE30002387F8DF3053
:105D300017E03A8897F8DF305B0042FA03F3DBB2F2
:105D400003F0030387F8DD3097F8DD30022B03D82A
:105D500097F8DF3087F8DE3097F8DF30013387F8C7
:105D6000DF3097F8DF30072BE3D93A8897F8DE3039
:105D70005B0042FA03F3DBB203F0030387F8DD3084
:105D800097F8DD30022B02D9022387F8DD30D7F8EF
:105D9000D4309B0803F00303002B27D097F8DE20B4
:105DA00097F8DD1013465B0013440B445B00E033AF
:105DB0003B4433F8D43CA7F8DA3097F8DD30002BB9
:105DC0007FD0B7F8DA30002B7BD197F8DE2097F838
:105DD000DD30591E13465B0013440B445B00E03377
:105DE0003B4433F8D43CA7F8DA306AE0D7F8CC303B
:105DF00093F83433012B27D197F8DE2097F8DD1084
:105E000013465B0013440B445B00E0333B4433F820
:105E1000A43CA7F8DA3097F8DD30002B51D0B7F862
:105E2000DA30002B4DD197F8DE2097F8DD30591E7F
:105E300013465B0013440B445B00E0333B4433F8F0
:105E4000A43CA7F8DA303CE0D7F8D03003F40033B4
:105E5000002B0FD097F8DE2097F8DD1013465B007B
:105E600013440B445B00E0333B4433F8743CA7F825
:105E7000DA3026E097F8DE2097F8DD1013465B0055
:105E800013440B445B00E0333B4433F8443CA7F835
:105E9000DA3097F8DD30002B13D0B7F8DA30002B6A
:105EA0000FD197F8DE2097F8DD30591E13465B00BE
:105EB00013440B445B00E0333B4433F8443CA7F805
:105EC000DA30B7F8DA301846E437BD46B0BC704770
:105ED00098060560C8060560F80605602807056095
:105EE00080B586B000AF78600B467B807B681B680E
:105EF0003B611023FB810023FB823B69BC331822EA
:105F00000021184649F00EFB7B8803F00B03002BA1
:105F100052D0FB89E022B2FBF3F39BB2FA8AD8B2EB
:105F2000396913465B0013449B000B44C03302469F
:105F30001A70FA8A396913465B0013449B000B44BC
:105F4000C4333F4A1A60FA8A396913465B00134426
:105F50009B000B44BC3301221A70FA8A396913463C
:105F60005B0013449B000B44BD33FF221A707B88F7
:105F700003F00803002B0AD0FA8A396913465B0044
:105F800013449B000B44BE3302221A8011E07B882D
:105F900003F00203002B01D0022000E00120FA8A66
:105FA000396913465B0013449B000B44BE33024621
:105FB0001A80FB8A0133FB827B8803F01403002BD9
:105FC00038D0FB894FF4F872B2FBF3F39BB2FA8A34
:105FD000D8B2396913465B0013449B000B44C033AD
:105FE00002461A70FA8A396913465B0013449B0013
:105FF0000B44C433134A1A60FA8A396913465B00AA
:1060000013449B000B44BC3301221A70FA8A39698D
:1060100013465B0013449B000B44BD33FF221A70F0
:10602000FA8A396913465B0013449B000B44BE3364
:1060300004221A80002318461837BD4680BD00BFD1
:1060400058070560C009202080B487B000AF786091
:10605000396000237B613B685B687A689B0013446E
:106060005B683B610023FB603B681B69FB603B682E
:106070001B7B012B33D13B691B68D3F80833DA4310
:10608000FB685B68134023F48073002B06D03B68E9
:10609000244A1A604FF0FF337B613CE0FB689B6849
:1060A000012B04D1FB685A687B68C3F81023FB6896
:1060B0009B68022B04D1FB685A687B68C3F81423E1
:1060C000FB689B68002B26D1FB685A687B68C3F885
:1060D0001023FB685A687B68C3F814231BE0FB6835
:1060E000DB68002B05D07B68D3F80823FB685A6077
:1060F00011E0FB689B68012B04D17B68D3F8102367
:10610000FB685A60FB689B68022B04D17B68D3F85C
:106110001423FB685A607B6918461C37BD465DF83E
:10612000047B70470E00008080B584B000AF7860BB
:1061300039600023FB600023BB603B685B69132B65
:106140000AD83B6800229A613B681422DA613B68F6
:10615000134A1A6002231FE03B681B69BB60BB68DF
:106160001B68104A934203D00F4A934206D00BE0BB
:10617000396878683AF021FAF8600CE03968786894
:10618000FFF762FFF86006E03B68084A1A604FF0CC
:10619000FF33FB6000BFFB6818461037BD4680BD6B
:1061A0000E00008001000C0002000C000B000080BB
:1061B00080B58EB004AFF860B9607A60BB689BB2FE
:1061C0009B009AB2FB68D3F800389BB29B019BB24C
:1061D00013439BB243F002039BB2BB83FB6893F86B
:1061E0000C38002B0FD0F968BA6813465B001344D3
:1061F0000B4403F2E2731B78FF2B04D0BB8B43F0FC
:1062000001039BB2BB83FB68D3F808389BB2FB83C6
:10621000164B1B780133DAB2144B1A70134B1B78F0
:10622000002B02D1114B01221A70104B1B78FB7608
:1062300007F11403013306227968184649F04AF938
:10624000FB685B7900220392029307F11403019328
:106250000023009300230022CE21F86802F0E6FD1F
:1062600078627B6A18462837BD4680BD3E0C2420E4
:1062700080B58AB000AF786039604FF0FF33BB6102
:106280003E4A07F1080392E80300186004331980BE
:106290003B68DA693B681B6A1344FB613B685B6AD5
:1062A0003B623B6AB3F5805F5FDC396AF8693AF0BC
:1062B00090FF03461A463B685A6452E0FB697B61D3
:1062C000FB690C331B885BBAFB84FB8C3A6A9A42ED
:1062D0004DDBFB8C0E3303F00303002B06D0FB8C4D
:1062E0000E3303F00303C3F1040300E000233B611A
:1062F000FA8C3B6913440E333A6AD31A3B627B69CA
:106300000E3307F108010622184649F0D3F8034678
:10631000002B0DD1FB6908330C22F969184649F0AE
:10632000E7F8FB690833FB61FB8C0633FB8406E06E
:10633000FB690C3300221A80FB8C0E33FB84FB8C30
:106340001A46F969386802F0C7F80023BB61BB69D7
:10635000002B00BFFA8C3B6913441A46FB691344B7
:10636000FB613B6A002BA9DC02E000BF00E000BF3C
:10637000BB6918462837BD4680BD00BF3808056098
:1063800090B58BB002AFF860B9607A607B80FB6833
:106390001B68BB610023BB83BA687968F8683BF06F
:1063A000B1FA78617B69002B06D03B8E1A46796979
:1063B000F8683BF069F892E0BB695C69BB691868F2
:1063C00007F1100300224021A0470346002B40F0B4
:1063D00085803B6918463AF034FF3B697A689A60D9
:1063E0003B690C330622B968184649F073F83B69DB
:1063F0003A8E5A823B69002283F83020F8683AF0DE
:10640000B6FF0346012B06D0FB687A6802F581626D
:1064100033F81230BB833B69BA8B9A823B697A8826
:10642000DA823B69002283F82E203B69012283F83F
:106430002F2039694FF000024FF00003C1E90E230D
:10644000BB695C69BB6918687B8899003B69183334
:106450000022A0470346002B07D0BB699B69BA699D
:10646000126839691046984739E03B693A695A62BF
:106470003B69FA689A623B69002283F820203B69F5
:10648000012283F82C20BB69DC69BB6918683B6971
:1064900003F11C013B691C33124AA0470023FB8314
:1064A00009E03B699A69FB8B9B00134400221A6048
:1064B000FB8B0133FB83FA8B7B889A42F1D3BB6958
:1064C0001868FB6803F502613A69BB695C6BBB69DC
:1064D0009B6B009323463AF0EDFE00E000BF2437AB
:1064E000BD4690BD7318046080B58AB002AFF860F5
:1064F000B9607A60BB680833FB617B68BB610023CD
:10650000FB750023BB82BB691B899AB2BB691A81E8
:10651000BB695B899AB2BB695A81BB699B899AB294
:10652000BB699A81BB68002262F030021A700022B7
:106530005A70BB68002242F018029A700022DA708A
:10654000FB69581CBB6901330622194648F0C2FF9B
:10655000BB69DA79FB69DA71BB695B899AB2FB695D
:106560009A81BB699B899AB2FB69DA81FB69002237
:106570001A70BB691B899AB2FB695A81FB695B89F6
:106580009BB29B08DBB203F00F03FB75FB7DFA683F
:10659000134493F8F837002B07D0FB69002242F030
:1065A00025021A7200225A7204E0FB6900221A7254
:1065B00000225A72FB695B899BB203F03F039AB2D7
:1065C000FB695A81FB6893F80D38002B0AD0FA7DDD
:1065D000F96813465B0013440B4403F2E2731B7823
:1065E000FF2B07D1FB695B899BB223F001039AB2B1
:1065F000FB695A81FB695B899AB2FB68D3F804385E
:106600009BB29B019BB213439AB2FB695A81FB690F
:106610005B899BB29B09BB82BB8A002B06D1FB69BD
:10662000002242F025021A7200225A72FB695B892D
:106630009AB2FB695A81134B1B7883F00103DBB2DA
:10664000002B09D0FB69002242F025021A720022B9
:106650005A72FB6901221A70FB691B899BB2002BDD
:106660000BD1BB69591CFA7DBB699B899BB2B88A67
:1066700000930346F868FFF783FE0023184620378F
:10668000BD4680BDA514202080B584B000AF7860E1
:106690000BF020FEF8600CF013FDFB6800221A716D
:1066A00000225A71FB6800229A710022DA71084BAD
:1066B0001B685B687A68F96818463FF07BFB00202E
:1066C0000CF034FD002318461037BD4680BD00BFD6
:1066D0002846222080B485B000AF03460A46FB71ED
:1066E0001346BB71094B1B685B68FB60FB68FA795A
:1066F00083F8C827FB68BA7983F8C92700231846AE
:106700001437BD465DF8047B704700BF2846222041
:1067100080B485B000AF786039600A4B1B685B6855
:10672000FB60FB6893F8C8277B681A70FB6893F8D6
:10673000C9273B681A70002318461437BD465DF818
:10674000047B70472846222080B58AB000AFB9602C
:106750007A603B600346FB7300237B6200233B624D
:106760006A4B1B68002283F8D8227B68002B0AD072
:10677000786848F00FFF03467B627B6A202B02D9C2
:106780006FF01603BDE03B68002B0AD0386848F074
:1067900001FF03463B623B6A202B02D96FF01603D0
:1067A000AFE04FF4EF7041F0CEF8B861BB69002B59
:1067B00002D16FF00C03A4E04FF4EF720021B8692E
:1067C00048F0B0FEBB69FA7B5A7097F83C20BB6971
:1067D0001A7097F83830002B07D097F83830042B10
:1067E00003D8BB6997F838209A70BB68002B06D095
:1067F000BB6904330622B968184648F06BFE7B6813
:10680000002B06D0BB690A337A6A7968184648F0CB
:1068100061FE3B68002B06D0BB692C333A6A3968AD
:10682000184648F057FE97F83030002B45D097F8BF
:106830003030322B41D87B6B002B3ED00023FB77CE
:1068400036E0FB7F9B007A6B1A44FB7F1178BA69B4
:106850000933DB0013440A469A71FB7F9B007A6B75
:1068600013441B780E2B06D9FB7FBA690933DB0072
:1068700013440122DA71FB7F9B007A6B1A44FB7F81
:106880005178BA690933DB0013440A461A72FB7F58
:106890009B007A6B13445B889AB2FB7F1146BA69FE
:1068A0000933DB001344C3F80A10FB7F0133FB7785
:1068B000FA7F97F830309A42C3D397F84030002BD4
:1068C00004D0124B1B68012283F8D8220F4B1B689F
:1068D0005B68BA690021184606F0D0FC78617B69D4
:1068E000002B0AD00A4A0B490B4837F037FAB8692F
:1068F00041F04BF84FF0FF3303E0B86941F045F841
:10690000002318462837BD4680BD00BF28462220F8
:10691000ACFC0460740205606008056080B58CB052
:1069200000AF786039600023FB6207F1080324227E
:106930000021184648F0F6FD3B68BB614FF4BC737C
:10694000FB617B68FB604FF4C0233B6101233B7517
:106950007B68002B09D0104B1B6807F10802114619
:10696000184609F075FFF86208E00B4B1B6807F149
:1069700008021146184608F03BFFF862FB6A002B3C
:1069800005D0FB6A012B02D04FF0FF3300E000235B
:1069900018463037BD4680BD2846222090B5E3B06A
:1069A00000AF07F5C474A4F5BE7420600846114614
:1069B00007F5C472A2F5C272136007F5C473A3F29F
:1069C0007D1302461A7007F5C473A3F5BF730A4618
:1069D0001A7007F110034FF4BC720021184648F0FA
:1069E000A1FD07F5C473A3F5BC73384A1A60D7F844
:1069F00098310D2B39D907F5C473A3F5BC73032265
:106A00005A6507F5C473A3F27D131B78002B0CD0D5
:106A100007F5C473A3F5BC735B6D43F0080207F57B
:106A2000C473A3F5BC735A650BE007F5C473A3F5F3
:106A3000BC735B6D43F0040207F5C473A3F5BC732C
:106A40005A6507F5C473A3F5BF731A7807F5C473C5
:106A5000A3F5BC73DA6007F1100338330622D7F8C8
:106A60009C11184648F036FD0BE007F5C473A3F5FA
:106A7000BC73FF22DA6007F5C473A3F5BC7301226F
:106A80001A7407F5C473A3F5BC73D7F898215A613B
:106A900007F5C473A3F5C27307F1100202F11800E1
:106AA000D7F89821196848F015FD07F1100207F58D
:106AB000C473A3F5BE7311461868FFF72FFF034692
:106AC000184607F5C677BD4690BD00BF0400060016
:106AD00080B58EB000AFF860B9601346FB7107F166
:106AE000100324220021184648F01CFDBB683B62BD
:106AF0004FF4BC737B6200237B614FF4C023BB6106
:106B0000FB793B770B4B1B6807F1100211461846C7
:106B100008F06EFE78637B6B002B05D07B6B012B3E
:106B200002D04FF0FF3300E0002318463837BD464F
:106B300080BD00BF2846222090B5E5B000AF07F524
:106B4000C874A4F5C274206007F5C870A0F5C470BD
:106B5000016007F5C871A1F5C6710A6007F5C87232
:106B6000A2F5C872136007F5C873A3F5C4731B6858
:106B7000002B03D0D7F8A031202B02D06FF01603E2
:106B800064E007F110034FF4BC720021184648F08E
:106B9000C9FC07F5C873A3F5C0732F4A1A6007F53F
:106BA000C873A3F5C473186848F0F4FC0346C7F82B
:106BB0008C31D7F88C31202B02D96FF0160345E0C9
:106BC00007F110030433C7F88831D7F88C21D7F8C0
:106BD00088311A60D7F88831181DD7F88C2107F54D
:106BE000C873A3F5C473196848F074FC07F5C8733B
:106BF000A3F5C6731B68002B0BD0D7F8883103F1BF
:106C0000240007F5C873A3F5C6730622196848F077
:106C100061FCD7F88831022283F82A20D7F888311E
:106C200003F12C0007F5C873A3F5C873D7F8A021AA
:106C3000196848F04FFC07F1100107F5C873A3F578
:106C4000C27301221868FFF743FF0346184607F591
:106C5000CA77BD4690BD00BF0500060090B5E5B0FF
:106C600000AF07F5C874A4F5C274206007F5C870BA
:106C7000A0F5C470016007F5C871A1F5C6710A607E
:106C800007F5C872A2F5C872136007F5C873A3F5BB
:106C9000C4731B68002B0DD007F5C873A3F5C87328
:106CA0001B68072B06D907F5C873A3F5C8731B68C3
:106CB000402B02D96FF016035CE007F110034FF48C
:106CC000BC720021184648F02DFC07F5C873A3F5E7
:106CD000C0732B4A1A6007F5C873A3F5C47318680C
:106CE00048F058FC0346C7F88C31D7F88C31202B7C
:106CF00002D96FF016033DE007F110030433C7F823
:106D00008831D7F88C21D7F888311A60D7F88831C4
:106D1000181DD7F88C2107F5C873A3F5C47319683B
:106D200048F0D8FBD7F88831012283F82A20D7F819
:106D3000883107F5C872A2F5C8721268DA62D7F80E
:106D4000883103F1300007F5C873A3F5C87207F561
:106D5000C873A3F5C6731268196848F0BBFB07F146
:106D6000100107F5C873A3F5C27301221868FFF775
:106D7000AFFE0346184607F5CA77BD4690BD00BF73
:106D80000500060080B5E2B000AF07F5C473A3F5B7
:106D9000C273186007F5C473A3F5C473196007F5CF
:106DA000C473A3F5C4731B68002B02D16FF01603E4
:106DB00042E007F10C034FF4BC720021184648F082
:106DC000B1FB07F5C473A3F5BE731E4A1A6007F53D
:106DD000C473A3F5C473186848F0DCFB0346C7F816
:106DE0008431D7F88431202B02D96FF0160323E0C9
:106DF000D7F8842107F5C473A3F5BE735A6007F56D
:106E0000C473A3F5C47307F10C0208321968104665
:106E100048F0A7FB07F5C473A3F5BE73032283F8FC
:106E20002E2007F10C0107F5C473A3F5C2730122EC
:106E30001868FFF74DFE0346184607F5C477BD46B0
:106E400080BD00BF0500060080B5BAB004AF786011
:106E500039607B68002B02D16FF0160337E03B6886
:106E6000202B02D96FF0160331E03A6813465B001D
:106E700013445B001A4607F1080308337968184683
:106E800048F028FB3B68FB600CF01AF90BF022FA83
:106E9000C7F8D400104B1B685868D7F8D430029359
:106EA00007F108030193002300930023012210211E
:106EB00007F0B8F9C7F8D000D7F8D030002B02D0CF
:106EC0004FF0FF3303E000200CF030F900231846A8
:106ED000D837BD4680BD00BF2846222080B485B08B
:106EE00000AF03463960FB713B6801221A70002332
:106EF000FB60FB79013B092B22D801A252F823F059
:106F0000296F00602F6F00602F6F00602F6F00608F
:106F1000356F0060356F0060356F0060356F006061
:106F20003B6F0060356F00600C4BFB600EE00C4B5C
:106F3000FB600BE00B4BFB6008E00B4BFB6005E0DC
:106F40003B6802221A70094BFB6000BFFB681846C1
:106F50001437BD465DF8047B704700BFBC0B202092
:106F6000B00B2020B40B2020B80B2020C00B202019
:106F700080B485B000AF786039603B6801221A7038
:106F80000023FB607B68FF2B1BD07B68FF2B1DDC85
:106F90007B68AA2B17D07B68AA2B17DC7B68322B67
:106FA0000CD07B68322B11DC7B68102B03D07B6804
:106FB000302B03D00AE00C4BFB600DE00B4BFB6069
:106FC0000AE00B4B09E00B4BFB6005E03B6802223B
:106FD0001A70094BFB6000BFFB6818461437BD46AA
:106FE0005DF8047B704700BFB00B2020B40B20205D
:106FF000B80B2020BC0B2020C00B202080B485B013
:1070000000AF03463960FB713B6801221A70002310
:10701000FB60FB79013B092B37D801A252F823F022
:1070200049700060557000606170006055700060CC
:107030006D7000606D7000606D7000605570006074
:1070400079700060857000603B6803221A70154BF0
:10705000FB6020E03B6803221A70134BFB601AE0D0
:107060003B6804221A70114BFB6014E03B6802225B
:107070001A700F4BFB600EE03B6803221A700D4B39
:10708000FB6008E00C4BFB6005E03B6803221A70D4
:10709000054BFB6000BFFB6818461437BD465DF822
:1070A000047B7047F80B2020C80B2020D40B202035
:1070B000E00B2020E80B2020F40B202080B485B0CA
:1070C00000AF786039603B6801221A700023FB60D2
:1070D0007B68AA2B3CD07B68AA2B3FDC7B68502BBB
:1070E00033D07B68502B39DC7B68402B27D07B6802
:1070F000402B33DC7B68322B0FD07B68322B2DDCAE
:107100007B68302B15D07B68302B27DC7B68102BFD
:1071100003D07B68202B06D020E03B6803221A7046
:10712000154BFB6020E03B6804221A70134BFB6098
:107130001AE03B6802221A70114BFB6014E03B68B6
:1071400003221A700F4BFB600EE00F4BFB600BE04D
:107150003B6803221A700D4BFB6005E03B6803227D
:107160001A70054BFB6000BFFB6818461437BD461C
:107170005DF8047B704700BFC80B2020D40B202093
:10718000E00B2020E80B2020F40B2020F80B20201F
:1071900080B586B000AF78600023FB723A4B1B6865
:1071A0005B68FB6000233B617B680E2B1ADD374B6D
:1071B0001B78002B0CD1FB681B68B3F89E301A4675
:1071C00007F10B0319461046FFF778FF386123E0FB
:1071D0002E4B1B7807F10B0211461846FFF70EFFE6
:1071E000386119E0294B1B78002B0CD1FB681B6818
:1071F000B3F89E301A4607F10B0319461046FFF705
:10720000B7FE386108E0214B1B7807F10B021146ED
:107210001846FFF763FE38610023FB752AE0FA7D0C
:1072200013465B0013443A6913441B78BB75002373
:107230007B7512E0BB7D7A689A4201D101231EE082
:107240007B680E2B03DDBB7D0433BB7502E0BB7D89
:107250000133BB757B7D01337B75FA7D13465B0083
:1072600013443A6913445B787A7D9A42E2D3FB7DFA
:107270000133FB75FB7AFA7D9A42D0D3002318467E
:107280001837BD4680BD00BF284622203F0C242071
:1072900080B400AF044B1B6893F89C301846BD4681
:1072A0005DF8047B704700BF2846222080B586B079
:1072B00000AF78600023FB750023FB730023BB73D2
:1072C0000023FB7520E0FB7D7A689B00134458780F
:1072D000FB7D7A689B0013445B889BB2194600F0E3
:1072E0002FFD0346002B0CD1FB7D7A689B001344D5
:1072F0005B78184A1849194836F030FD4FF0FF33D3
:1073000024E0FB7D0133FB757B681B78FA7D9A4294
:10731000D9D307F10E0207F10F031946786800F080
:107320007FFD38613B69002B07D00A4A0A490C48A7
:1073300036F014FD4FF0FF3308E00A4B1B685B6822
:10734000F97BBA7B184600F005FE00231846183773
:10735000BD4680BDACFC0460740205607C0805601D
:107360009C0805602846222080B582B000AF786076
:1073700039607B68002B0AD03B68002B07D0064B96
:107380001B685B683A68796818463BF0C1FA00BF31
:107390000837BD4680BD00BF2846222080B485B096
:1073A00000AF0346FB71074B1B685B68FB60FB6823
:1073B000FA7983F8E02000BF1437BD465DF8047BFE
:1073C000704700BF2846222080B586B000AF7860A5
:1073D0007B68002B02D14FF0FF3364E0344B1B6815
:1073E0005B687B610AF076FF38610BF069FE3B69F0
:1073F000002242F030021A70002242F001025A705C
:107400003B6900221A7100225A713B6900229A716D
:107410000022DA713B69002242F014029A700022C5
:10742000DA703B690833FB607B681B889AB2FB68A3
:107430001A807B68B3F902301AB2FB685A807B6805
:107440009B889AB2FB689A807B68B3F906301AB2BF
:10745000FB68DA80FB684FF0FF321A7200225A7222
:1074600000229A720022DA727B681B889AB27B69CA
:10747000A3F8CA277B68B3F902301AB27B69A3F874
:10748000CC277B689B889AB27B69A3F8CE277B6860
:10749000B3F906301AB27B69A3F8D02700200BF0AD
:1074A00045FEB860BB6818461837BD4680BD00BFB2
:1074B0002846222080B487B000AFF8607B600B467E
:1074C000FB7213463B81FB7AFB74FB7ABB74FB7A3D
:1074D000002B07D1FB6893F8B830FB74FB6893F876
:1074E000B930BB743B8903F02B03002B28D0002359
:1074F0007B6122E02D497A6913465B0013449B00AF
:107500000B441B78FA7C9A4214D128497A691346B5
:107510005B0013449B000B4408331A687B681A60B5
:1075200022497A6913465B0013449B000B440433E1
:107530001B6834E07B6901337B617B69092BD9D9F6
:107540003B8903F05403002B28D000237B6122E009
:1075500017497A6913465B0013449B000B441B7860
:10756000BA7C9A4214D112497A6913465B001344DB
:107570009B000B4408331A687B681A600C497A69CF
:1075800013465B0013449B000B4404331B6806E066
:107590007B6901337B617B690E2BD9D900231846A7
:1075A0001C37BD465DF8047B704700BFC40D20202A
:1075B0005C112020B0B495B000AF78600846114649
:1075C0001A460346FB700B46BB7013467B70334B69
:1075D00007F108041D460FCD0FC40FCD0FC40FCD0A
:1075E0000FC495E80F0084E80F000023FB6400231C
:1075F00087F84B30002387F84A30BB7803F0030349
:10760000012B3BD1BB789B08DBB203F0030387F867
:107610004B30BB781B09DBB203F0010387F84A301B
:10762000FB78202B09D197F84A30012B02D10D238A
:10763000FB642DE00C23FB642AE0FB78072B19D8B0
:1076400097F84B30012B11D897F84B30C3F1010359
:107650005A0097F84A301A44FB78D20013445B0072
:1076600050333B4433F8483CFB6411E00C4B1B881F
:10767000FB640DE00A4B1B88FB6409E0FB783B2BA5
:1076800001D90023FB70FB78054A32F81330FB6404
:10769000FB6C18465437BD46B0BC70477415056086
:1076A0006012202080B489B000AFF8607B600B4688
:1076B0007B8113463B810023FB610023BB76D2E034
:1076C00000237B76BA7E13465B0013449B001A4668
:1076D0007B6813447B617B691B78002B03D07B693B
:1076E0009B68002B03D1BB7E0133BB76BBE07B697B
:1076F0005B88022B02DC002B20DC85E0042B40F0B1
:1077000083807B89142B0FDC042B0FDB1A460123AB
:1077100003FA02F25B4B1340002B14BF012300233A
:10772000DBB2002B08D101E0542B05D0BB7E013326
:10773000BB7601237B7600E000BF6BE07B89013BD9
:107740002A2B59D801A252F823F000BF0578006017
:107750000578006005780060F9770060F9770060CF
:10776000F9770060F977006005780060F9770060CC
:107770000578006005780060F9770060F9770060AF
:10778000F9770060F9770060F9770060F9770060B9
:10779000F9770060F9770060F9770060F9770060A9
:1077A000F9770060F9770060F9770060F977006099
:1077B000F9770060F9770060F9770060F977006089
:1077C000F9770060F9770060F9770060F977006079
:1077D000F9770060F9770060F9770060F977006069
:1077E000F9770060F977006005780060F97700604C
:1077F0000578006005780060BB7E0133BB7601230D
:107800007B7600E000BF05E0BB7E0133BB76012341
:107810007B7600BF7B7E002B00D024E03B89FF2BD2
:1078200003D17B699B68FB611AE00023FB7612E0C1
:107830007B699A68FB7E1B0113441B883A899A4234
:1078400006D17B699A68FB7E1B011344FB6107E04C
